:100000000C9424030C945C030C945C030C945C032C
:100010000C945C030C945C030C945C030C945C03E4
:100020000C945C030C945C030C94B3260C94F5259F
:100030000C94BD170C945C030C945C030C945C034F
:100040000C945C030C945C030C945C030C945C03B4
:100050000C945C030C9454170C945C030C945C0398
:100060000C945C030C945C030C945C030C945C0394
:100070000C945C030C945C030C945C030C945C0384
:100080000C945C030C945C030C945C030C945C0374
:100090000C945C030C945C030C945C030C945C0364
:1000A0000C945C030C945C030C945C032E0B2E0BE1
:1000B0005E0B5E0B030C500D500D500D210C940C7B
:1000C000A70CA70C34134B135213601560158B1338
:1000D0009D13B013F013F5132114451478147B14F9
:1000E00087149314AA14E114FE142315391501245E
:1000F0002824DD252824DD2574249724DD25982552
:10010000A825FD377A585A000004E6D6B446020006
:10011000210116000000742FE5A3E0023400FE5D0B
:10012000003D8889C65436C3174FE4E178081DBDE9
:1001300095F69C9ABA80D0BC486061F509309FB1B1
:10014000E794F5C712DDBE13B524EFE920F8F9B640
:10015000B5C05E5B99D854B8181ECB5CAB387EAE88
:10016000B4EF02E4DD8EAEEF425A36E879E4E9F40A
:100170000D42EF3860BA004CE7F2A6DF251A526E46
:10018000691DBC4149B34A4363F71A2561E06C5AC3
:10019000307F1B1D3B0A77A7803B19305DF5CDF002
:1001A00080C8857BED502FEC517AC97616D0CEA64B
:1001B00078B8540FFEB65E817876B5F4B0CEABB5A4
:1001C000E9191A6420CEF8243C2DC8F764A91E53FF
:1001D000C967225982143568F2AFBA7B78E30532D9
:1001E000C130159BDAE775513DB56DA8D365C65191
:1001F000DF19FA94B5BB6C6B9FF381026A810CD452
:100200006A8932475FBBFC0D3B76A3052918A271B2
:10021000E10F07849B526FC37996918F8985000007
:1002200000000160BA8079C5CD0800019A02B504CA
:100230000000ECA4CD28B1C467FB0200000000045C
:10024000595A010001003702B816EB1600000200EF
:1002500002003302B816EB1600000300010038025A
:10026000B816EB160000040002001D02B816EB16CB
:100270000516050001003902B816EB16000006004D
:1002800002001F02B816EB1600000700020035023C
:10029000B816EB160000080001003A02B816EB167B
:1002A0000000120002003B02B816EB16000013001B
:1002B00002003D02B816EB160000140001003F02D8
:1002C000B816EB16000015000000000088153A165D
:1002D000000000000000000000000000000000001E
:1002E000000000000000000000000000000000000E
:1002F0000000000000007E0F00D4FFFFFFC70000D9
:10030000007800000000000000002A2B28000000F8
:1003100000000000000000000000000000290000B4
:1003200000002C1E3420212224342627252E362D91
:100330003738271E1F202122232425263333362E2B
:1003400037381F0405060708090A0B0C0D0E0F109D
:100350001112131415161718191A1B1C1D2F3130E2
:10036000232D350405060708090A0B0C0D0E0F1086
:100370001112131415161718191A1B1C1D2F3130C2
:10038000354C05010980A101850319012AB7001523
:100390000126B700950175108100C0050C0901A167
:1003A00001850419012AA002150126A002950175F4
:1003B000108100C00660FF0961A1010962150026D5
:1003C000FF009520750881020963150026FF00953E
:1003D0002075089102C005010906A101050719E071
:1003E00029E7150025019508750181029501750819
:1003F00081010507190029FF150026FF00950675E4
:1004000008810005081901290595057501910295D6
:100410000175039101C009025B00030100A0FA0904
:100420000400000103010100092111010001224023
:100430000007058103080001090401000203000010
:10044000000921110100012222000705820320007A
:100450000107050303200001090402000103000055
:100460000009211101000122320007058403200048
:10047000011201000200000008100110010100013A
:100480000203011C037600690061006C003A0066FB
:100490000036003400630032006200330063000065
:1004A000000C036B00650069003400360000001288
:1004B000037400680065006F0072006900650073D6
:1004C00000000004030904290014001A00080015A4
:1004D0000017002B0004001600070009000A00E1C5
:1004E000001D001B00060019000500E000E300E20B
:1004F0000001512C0000002A00130012000C00180B
:10050000001C00340033000F000E000D000B0039FA
:100510000038003700360010001100C25CE400E72C
:1005200000E6000251280035001E001F00200021B7
:1005300000220035021E021F0220022102220201B7
:1005400000010001000100010001000100010001A3
:10055000000100010000004C0027002600250024B7
:100560000023003102270226022502240223020171
:10057000005200010001000100010028004F00515D
:100580000050000351010001003A003B003C003DD7
:10059000003E000100010001000100010001000116
:1005A0000001000100010001000100010001000143
:1005B00000035101000000010043004200410040DF
:1005C000003F00310030002F002E002D00010031CF
:1005D0000230022F022E022D020100010001000153
:1005E000000100010001002900B200B500B100B314
:1005F0000001000100C25CC35CC75CC55CC95C0152
:10060000000100CD5CC85CC65CCA5C010001000151
:10061000000100010000000100460001000100018E
:10062000000100005C010001000100010001000167
:1006300000F0000100010001000100AE00F300F134
:1006400000F200010001000011241FBECFEFDAE02C
:10065000DEBFCDBF04B603FE18C08091FC049091AC
:10066000FD04A091FE04B091FF048730904BA74099
:10067000B04B59F41092FC041092FD041092FE0449
:100680001092FF04E0E0F8E3099511E0A0E0B1E08A
:10069000E8E3FAE602C005900D92AA37B107D9F750
:1006A00024E0AAE7B1E001C01D92AC3FB207E1F738
:1006B0000E94A50D0C941A350C940000ACE0B0E03B
:1006C000E4E6F3E00C94A3347C01DC0113964D9135
:1006D0005C91149711966C9111978C910E94CF198F
:1006E00081110C94A10D61E0C7010E94DF2C8C01E7
:1006F000F7018281882399F1C80190568115F0E2B3
:100700009F0748F0905E811520E1920720F0915CF0
:1007100081159F4118F4C801992708C00F3F1105A2
:1007200009F010F4C80102C080E090E09C01245060
:1007300031092432310518F08B970E9780F4E0913F
:100740009E01F0E0EE0FFF1FED55FE4F808191817D
:100750008F3F2FE7920719F0019691838083D7018D
:1007600012968C918823E1F0809104039091050307
:100770000097B1F00817190799F0BEE08B9FC001F0
:100780001124FC01EC54FC4F20812460208381550E
:100790009C4FFC01118300830E9460181092030398
:1007A000D70112963C90332009F489C6C8018251C2
:1007B0009F45409708F0B6C08FEF93E00E94E43366
:1007C00081116AC67EEED72ED00E0BEC12E0DD2032
:1007D00071F00115B4E01B0709F45EC6C8010E9460
:1007E000E433811101C0DA940F5F1F4FF0CF1982FB
:1007F0001A821B821C82AA24AA946801EFEFCE1AE7
:10080000DE0AC8010E94E43389831A82882309F42E
:1008100043C6813009F080C04801F2E08F0E911C80
:10082000C6010E94E433B82E8A83882309F434C6B3
:100830008FEF8B0D833070F4680123E0C20ED11C62
:10084000C4010E94E4338B83811102C08601D5CF9D
:1008500060E063C08BEF8B0D833078F5380133E0B7
:10086000630E711CC4010E94E4338B83811102C0AA
:100870006301ECCF680144E0C40ED11CC3010E94A7
:10088000E4338C83882311F32B813C8121305FEF8B
:10089000350718F0922F80E001C0C901A6E0BA1612
:1008A00031F0B7E0BB1631F00E94BC32CFCF0E94CE
:1008B0009632CCCF0E941C32C9CFE4E0BE1611F0B4
:1008C0006401C4CFC4010E94E433B82E6801F4E08F
:1008D000CF0ED11CC80103960E94E433BB2009F45B
:1008E000DBC5882309F4D8C5282F30E02150310911
:1008F000A29EA001A39E500D11248B2D90E0019784
:10090000840F951F019708F4A1CFAFE9BFE01197BD
:10091000F1F700C00000F6CF6AE0CE0101960E9418
:10092000231C94CF0031EFE51E0731F00131FFE5C4
:100930001F07B1F482E001C081E00E94291E0E94DD
:100940001223AAC5680127E5D21A3FEFC316D104C6
:1009500009F008F4C3C5D70112963C903320D1F0BA
:100960000F35BDE51B0761F00036EDE51E0761F0B0
:100970000E35FDE51F0771F480910001811104C05F
:1009800081E08093000188C51092000180E00E9400
:10099000401982C580910001811108C0C801975596
:1009A0008F3F910509F008F47AC1CAC1480120EED1
:1009B000821A91082090950380917F01282A8091C6
:1009C000FC01282A38E08316910480F498012770EE
:1009D000332781E090E001C0880F2A95EAF73320A1
:1009E00011F0282A18C08095282215C0332009F458
:1009F00016C110937D0100937C010E94A51760939E
:100A0000F5027093F6028093F7029093F802109229
:100A1000FD021092FC02D7018D919C910E94AE1DA7
:100A200021E030E0F90102C0EE0FFF1F8A95E2F7E6
:100A3000FC87EB872091FE023091FF0238872F83DD
:100A400040917C0150917D015A8749871D82432C3A
:100A5000512C5D81E52FF0E0EE0FFF1FE059FB4FB9
:100A6000C080D180C114D10409F4F0C0211005C0A8
:100A7000D60112968C918111CEC0F601838190E04F
:100A80002B853C8582239323892B09F4C4C0808560
:100A9000982F977009F487E038E08316910440F4AA
:100AA000332019F081FD09C0B6C082FD06C0B3C075
:100AB000332009F4B0C080FFAEC0D601AD90BC9029
:100AC0000A151B0519F4332009F4A5C0EF81F88538
:100AD000CE16DF0609F49FC0D6011D96ED91FC915C
:100AE0001E97309721F08081882309F494C0622DED
:100AF000C6010E94AF19882309F48DC00A151B0591
:100B000011F4320102C0612C712CB62DB170BE837C
:100B100081E0A114B10441F0B11106C0E985FA8564
:100B2000AE16BF0609F080E080FF75C080E00E942D
:100B30004019D092FF02C092FE0281E08093FB0236
:100B4000D60115968C918093F902BE81B11113C024
:100B5000AB2889F0F601808191819C0124503109F4
:100B6000213A310530F4682F8EEE91E00E94E617AD
:100B700002C00E94801ED6011696AD90BC901797B9
:100B8000C5019A9581159F4110F4E0EEBE225524CF
:100B90005394C5010197803B9D4508F0512CD60127
:100BA0001996ED91FC911A97309739F01B966D913B
:100BB0007C911C9781E009955822552029F1F60176
:100BC000868197810E94432F8093FA02C501F8E045
:100BD0008F16910418F40E94FA1816C00497813AEF
:100BE000910530F46A2D8EEE91E00E94F3170EC04D
:100BF0000E94D62B8FE39CE90197F1F700C000001B
:100C00008A2D0E94D91E02C00E94D62B91E069262F
:100C100060FE73C1C3CEAD81AF5FAD831ACF80914B
:100C20007C0190917D010817190781F410927D01D4
:100C300010927C011092F5021092F6021092F702C7
:100C40001092F8021092FD021092FC028091FE02B6
:100C50009091FF02009709F4A1CEB8E08B169104A1
:100C600038F4622D0E94AF19811198CE81E014C032
:100C7000FC01208131810217130729F4311006C0CD
:100C80001092FB0208C0332009F488CEDC011896CC
:100C90008C9185FD83CE80E00E9440197FCE580163
:100CA000BB24BEE00B9FF00111249F0121553C4F56
:100CB0006901D70112969C911297EC54FC4F8081E8
:100CC00090FB80F9808312969C919923A1F10E9458
:100CD000B1179093960180939501F60182818F5F01
:100CE0008283909103038091FC01892B83838091FF
:100CF000950384830680F781E02D309739F0D60183
:100D00001C966D917C911D97C60109958EE08A9D78
:100D1000F0018B9DF00D1124EC54FC4F808181FF7C
:100D200003C090E080E002C0902F812F90930403D5
:100D30008093050305C081FF03C0C9010E944618C6
:100D40008091380280FF9BC00E94B1176C01F701AF
:100D500082818823D9F18091100182FF08C025ED9E
:100D600031E040E0B60180E090E00E94651B0B316D
:100D7000FCE51F0779F00C312CE5120789F00A31E8
:100D80003CE51307A1F480911001982F909590FBFA
:100D900080F909C08091100181608093100107C023
:100DA000809110018E7F809310010E94261BC80144
:100DB0009056811540E2940720F0905E8115904195
:100DC00080F5109244021092430259C0013E110571
:100DD00021F4809110018F7E06C0053E110531F48B
:100DE000809110018F7D809310011BC0C801905627
:100DF0008115A0E29A0720F0905E8115904188F459
:100E00008091100182FF3BC080913A0281FD37C082
:100E100025ED31E040E0B60180E090E00E94651BE6
:100E20002EC08091100180FF2AC0F7018281083214
:100E3000110538F40E311105B8F40430110578F4B9
:100E40001CC00933110538F40D32110590F40B3232
:100E5000110579F012C00436110559F00EC09091B9
:100E6000380294FD0AC04CC09091380293FD05C031
:100E700047C09091380292FF43C08111F3C0033FF5
:100E80003CE5130709F41BC108F01FC1083D5CE5F0
:100E9000150709F40EC1093D8CE5180709F431C1A5
:100EA000073D9CE5190709F4FEC0F70122812111D5
:100EB00031C10631FCE51F0709F0CFC28091FC016A
:100EC000982F9A7A3091370230FDA0C231FDA4C22A
:100ED00032FDA8C233FDACC2222309F4B2C281E0C4
:100EE000911101C080E080937E01992309F4A7C28B
:100EF00065E38EEE91E00E94F3170E94D62BCCC2E0
:100F0000882309F4A8C0909195038091FC01892B56
:100F10008D7F79F110924402109243028091380241
:100F200081FD27C0F80153E0F695E7955A95E1F762
:100F3000EE71FF27E350FE4F98012F70332781E0B9
:100F400090E002C0880F991F2A95E2F7809590954E
:100F5000208131818223932391838083A70160E0E4
:100F6000C8010E94451B809195038D7F0E94442BF0
:100F70006EC088E0F701A5EDB1E001900D928A9571
:100F8000E1F71092D7011092D9011092D801809107
:100F900043029091440208171907E1F58091380245
:100FA00085FF38C09091100191FF02C086FF32C0CA
:100FB00080914102909142025601A81AB90AB701E4
:100FC000C8010E94E631A816B90620F58091FC01FF
:100FD00081FF08C08091100180618093100182E040
:100FE0000E945F2B8091FC0185FF08C08091100159
:100FF00080628093100180E20E945F2B609110015B
:1010000066956170A70180914302909144020E940D
:10101000451B42C2809195039091FC01982B9695B7
:1010200091702091100190FB21F9209310018D7F88
:101030000E94442B1093440200934302D092420238
:10104000C09241028091100184608093100182E07F
:101050000E94732B21C2970140E0B601C8010E9493
:10106000651B1AC21092440210924302033FFCE532
:101070001F0729F170F4083D3CE51307D1F0093D45
:101080004CE51407F1F1073D5CE5150709F042C096
:101090000AC0053F8CE5180719F1E0F0063FACE502
:1010A0001A0749F137C006E221EE41EE67ED7CE513
:1010B0002DC007E225EE45EE68ED7CE527C006E28F
:1010C00021EE40EE63EF7CE521C0053FACE51A0759
:1010D00039F060F407E225EE44EE64EF7CE516C0DB
:1010E00006E221EE42EE65EF7CE510C0063FECE53E
:1010F0001E0709F0DACE07E225EE46EE66EF7CE544
:1011000005C008E221E045EE69ED7CE5C7010E94DB
:101110008818C2C1109202030330FDE51F0758F47E
:101120000A3F2CE51207C0F4C80182509C45449741
:1011300008F06AC111C0053A3DE5130769F030F4C3
:1011400001365DE5150709F05FC106C0C8018D5A7B
:101150009D45039708F058C10E94BD2A9093FB015A
:101160008093FA0102318CE5180709F40CC108F0EC
:101170004DC00930ACE51A0709F4D9C008F50530AF
:10118000ECE51E0709F4C0C080F403302CE512071B
:1011900009F4B1C008F0B5C002304CE5140709F0FD
:1011A0002AC18091FA018160A9C007305CE515076A
:1011B00009F4B5C008F0B7C08091FA0180619EC003
:1011C0000D309CE5190709F4C8C058F40B30BCE594
:1011D0001B0709F4B6C008F0BCC08091FA01886012
:1011E000ACC00F30FCE51F0709F4C5C008F4B8C057
:1011F00000313CE5130709F4C2C001314CE5140786
:1012000009F0F9C08091FA018F7B78C00F3F5CE54F
:10121000150709F4C3C098F50A3F9CE5190709F4BE
:1012200077C0C0F40431BCE51B0709F4C6C008F45C
:10123000B0C00531FCE51F0709F0DDC08091FA015F
:1012400082FB222720F991E0922790FB82F990FB04
:1012500083F954C00C3F2CE5120709F485C008F44B
:101260005AC00D3F4CE5140709F481C00E3F5CE500
:10127000150709F0C0C08091FB01826060C0013693
:101280008DE5180709F4ABC070F40130ADE51A071D
:1012900009F49FC008F487C00230EDE51E0709F08D
:1012A000AAC060E097C00D3AFDE51F0701F160F4A8
:1012B000053A3DE5130709F09EC08091FA01982F89
:1012C000909590FB80F91AC00E3A4DE51407E9F1AC
:1012D0000F3A5DE5150709F08EC08091FB0183FB95
:1012E000222720F991E0922790FB83F982C0809118
:1012F000FB0188607EC08091FA0182608093FA01D0
:101300007AC08091FA0119C08091FA018860F6CF05
:101310008091FB0114C08091FB0182606AC08091C2
:10132000FA018062EBCF8091FA018064E7CF0E94DE
:10133000551E8091FA018068E1CF8460DFCF816023
:1013400058C08091FA018E7FD9CF8091FB01877FB1
:1013500050C08091FA018D7FD1CF8091FA011CC0DD
:101360008091FA01877FCACF8091FB011AC08091DA
:10137000FB018D7F3EC08091FA018F7EBFCF8091AF
:10138000FA018F7DBBCF0E94551E8091FA018F77A5
:10139000B5CF8091FA01877F8B7FB0CF8091FB0121
:1013A0008D7F8E7F26C08091FB01982F9095917044
:1013B0008E7F892B90FB81F91CC00E94551E809165
:1013C000FA0187FB222720F991E0922790FB87F909
:1013D00095CF61E08EE090E00E94F2330CC08091E6
:1013E000FA0184FB222720F991E0922790FB84F9EF
:1013F00085CF8093FB018091FA019091FB010E94BF
:10140000AF2A0E94551E48C021E053CD482F447496
:1014100009F45CCD90E05ACD482F417109F458CDC4
:1014200090E056CD482F487809F454CD90E052CD45
:10143000827209F451CD222321F010927E0169E2DB
:1014400058CD80917E01882311F065E301C069E2E7
:101450008EEE91E00E94E61750CDD70112968C9146
:10146000882309F4A5C00A358DE5180709F49BC047
:1014700008F085C00115ACE51A0709F079C00E9493
:10148000551E3FEF44E35CE0315040405040E1F7EF
:1014900000C000000E94301780918A03877009F411
:1014A00050C3D70112968C91882309F44AC38091C6
:1014B000FB0182FF46C382E00E94732B42C30031CE
:1014C000BFE51B0721F481E00E941C1E38CA0131D0
:1014D000EFE51E0709F036CA82E0F6CF65EA73E051
:1014E0008C2D0E943330892B09F035CA8EE08C9DFB
:1014F000F0018D9DF00D1124E155FC4F828181306A
:10150000E1F48091A5039091A603892B09F423CAE5
:101510008091A7039091A803892B09F41CCA80919C
:10152000A9039091AA03892B09F015CA8091AB03F6
:101530009091AC03892B59F00ECA823009F00BCA86
:101540008091A9039091AA03892B09F404CA2EE083
:101550002C9DC0012D9D900D1124FC01EC54FC4FDD
:1015600020812E7F208381559C4F0E946018F3C9F3
:101570000E3DBCE51B07E1F40E94CE2A09C00C35E4
:10158000EDE51E0741F088F0073A2DE5120781F4DA
:101590000E942D2F81CF8091FB0182FB882780F94B
:1015A00091E0892703C081E001C080E00E94902B78
:1015B000D70116968D919C9117970097B9F4F70172
:1015C000828100811181882349F0C8010E94721D27
:1015D000D82E682FC8010E94E21D04C0C8010E94D5
:1015E000AE1DD82EB8018D2D0E94481D0E942829BD
:1015F000182F092FD7011296BC9012971596CC90F0
:10160000C2944FE0C42280918A038770B9F0BB2056
:10161000A9F0892F807F803421F080E2810F88300B
:1016200068F08091FB0182FF09C082E00E94732B69
:1016300080918A038770AA24A3948111A12C902EF3
:1016400092943FE09322892D90E08C30910508F030
:1016500027C2FC01EA5AFF4F0C948334902F9F70ED
:10166000802F807FD92E19F0D29420EFD222BB2078
:10167000A9F0DD2009F4F4C180E2810F883010F078
:10168000111104C08D2D0E94662B05C080910303AB
:10169000D82AD09203030E94D62BE2C1812F0E9448
:1016A000801EDD2009F4FCC180E2810F883068F1E2
:1016B000112359F18D2D0E94582B2AC0902F9F7015
:1016C000802F807FD92E803219F0D29490EFD922CA
:1016D000112321F0113009F468C073C08091FB011F
:1016E00082FD19C0BB2059F0DD2029F08D2D0E940C
:1016F000662B0E94D62B80E00E94D91ED1C180E0CB
:101700000E94801EDD2009F4CBC18D2D0E945F2B2D
:101710000E94D62BC5C1BB2011F1CC20E1F0B1E075
:10172000CB1206C0809195038D290E94442BB8C12D
:1017300080913902823078F0C8120DC00E94392B96
:1017400090917F018D2D892B891380937F018D2DA1
:101750000E94791EA5C1809195038D29F9CFCC20D7
:10176000F1F080913902E1E0CE1214C0823008F429
:1017700097C18091FC018D2109F492C10E94392BFF
:1017800090917F018D2D80958923891751F0809349
:101790007F0107C0823018F0C81609F481C10E9489
:1017A000392B8D2D0E94721E7BC180913F02BB2080
:1017B00021F08C1508F474C1CACFC81608F070C1A6
:1017C000F0CFBB20E9F0CC2011F220E0D7014C9102
:1017D00011965C91119712966C91129713967C91C9
:1017E000139714968C910E94BC2C80913A0281FD33
:1017F00037C1F701858180FF33C18F708583A7CF03
:10180000C11037C1CECF802F86958695837019F091
:10181000813061F045C1BB2021F0812F902F937062
:1018200002C080E090E00E94231840C1BB2021F05C
:10183000812F902F937002C080E090E00E940D18DD
:1018400035C1802F8370A1F5B1102EC1412F429573
:1018500046954770440F440F212F2F7030E0C90187
:10186000042E01C0880F0A94EAF714FF08C02FE085
:1018700030E001C0220F4A95EAF7209501C020E030
:10188000302F369536953370323069F040F4409100
:101890009603313019F0822B842302C0842B822BD3
:1018A0000E94351E01C1282B809196038227F8CF14
:1018B000BB2019F0802F817001C08695882309F420
:1018C000F3C0412F429546954770440F440F212F96
:1018D0002F7030E0C901042E01C0880F0A94EAF786
:1018E00014FF08C02FE030E001C0220F4A95EAF74C
:1018F000209501C020E0302F369536953370323078
:1019000051F070F440913D03313019F0822B842363
:1019100008C0842B05C0282B80913D03822701C07D
:10192000822B0E94171EC0C0F02FFF70DF2EBB203D
:1019300039F08F2F0E94291E812F0E94791EB4C07A
:10194000812F0E94721E8D2D0E941C1EADC0123F61
:1019500011F128F4103F41F0113FA9F17DC0133F70
:1019600001F1143F61F178C080913F02BB2021F06A
:10197000C81608F095C003C08C1508F491C0202F3C
:101980002F7181E090E001C0880F2A95EAF79091CD
:101990003D0389270FC0802F8F71BB2009F464C0DD
:1019A0007BC0BB2051F081E0902F9F7101C0880F58
:1019B0009A95EAF70E94171E73C080E0FBCF8091D2
:1019C000FB0182FD06C0802F8F71BB2009F464C02B
:1019D0004BC080913902823040F1BB20C1F0909120
:1019E0008A039770943039F40E946C2B802F8F718A
:1019F0000E941C1E54C0C81608F051C0202F2F7121
:101A0000D22E822F0E94291E63E08D2D07C0C8169A
:101A100040F00E946C2B64E0802F8F710E94A52BF8
:101A20003EC081E00E94732B3AC0BB2059F0302F9A
:101A30003F71D32E832F0E94291E63E08D2D0E94BB
:101A4000A52B2EC081E00E94732B41E04C1540F580
:101A500082E00E94732B24C0BB2049F0CC2011F0FF
:101A6000812F4ACE802F8F710E94291E19C0CC2051
:101A700089F0193329F480913D0290913E0204C00F
:101A800080913B0290913C020E945A1B812F0E9440
:101A9000801E06C0802F8F710E941C1E01C0A12CC9
:101AA00088EF890D843010F40E943918812F902F0F
:101AB0000E943A1E811105C010928101109280018E
:101AC00025C0BB2019F0C110F7CF20C0C110F4CF42
:101AD00020E0D7014C9111965C91119712966C9170
:101AE000129713967C91139714968C910E94BC2C9C
:101AF00080913A0283FFE0CF809180019091810133
:101B00000297D1F6812F0E94711FD6CFAA20A9F08B
:101B100080918A0380FD11C0F70112828595859519
:101B200085950E94291EC7010E945E0380918A0349
:101B30008595859585950E941C1E60E0C7010E94D1
:101B4000DF2C2C96E2E10C94BF34AEE3B0E0EBEA7C
:101B5000FDE00C94A33485B7806885BF85B78068A5
:101B600085BF84B7877F84BF0FB6F894A89580910E
:101B70006000886180936000109260000FBE90E06A
:101B800080E80FB6F89480936100909361000FBED7
:101B90008DE098E290937B0180937A010E94043259
:101BA0000E94A2310E942E310E94DB1C0E94392625
:101BB0000E9458268091E20084608093E20078942D
:101BC00080913C038823A1F01091E9001F7090914F
:101BD000EC00892F817090FD80E8182B1092E900AD
:101BE0008091E80083FD0E941E231F701093E9007E
:101BF00082E084BD93E095BD9AEF97BD80936E001F
:101C00000E94B233811102C00E94A2330BE111E0A5
:101C1000D8018D918D018F3F11F00E945228B1E0C3
:101C200003321B07A9F703E211E0F80181918F014C
:101C30008F3F11F00E945228F1E009321F07A9F7E7
:101C400088E0E6EEF1E0DF01282F1D922A95E9F702
:101C5000E2E8F1E0DF011D928A95E9F780E090E08B
:101C60000E94EC33883E9E4F21F40E94B2338111D2
:101C700002C00E94CE2A82E090E00E94E43380936A
:101C80008C010E94BD2A9093FB018093FA010E946F
:101C90006928EFE3FCE93197F1F700C000000E94EA
:101CA00069288091E60180FF08C06FEF7FEF80E038
:101CB00090E00E9410340E94301783E090E00E9470
:101CC000E4330E94351E81E08093DF0124982C9A32
:101CD00025982D9A8FE891E00197F1F700C0000058
:101CE0003091DF01E0EEF1E020E0231761F083B1F5
:101CF000829581701D9B02C092E001C090E0892B0B
:101D000081932F5FF2CF81E091E09093090380935C
:101D1000080318E1212E312C80913C03853009F015
:101D200042C000E112E180913C03853009F037C0E8
:101D300080913C03843011F110920C0390E40FB6B3
:101D4000F894A895209260000FBE9093600083B72E
:101D5000817F846083BF83B7816083BF78948895D7
:101D600083B78E7F83BF0FB6F894A89580916000EB
:101D7000886180936000109260000FBE80913203F2
:101D8000882309F4D0CF0E946928E6EEF1E0819122
:101D900081119BC6A1E0EE3EFA07C9F7C4CF0E94AD
:101DA000551E0E9439180E9469280DE811E0E6EEE0
:101DB000F1E0FEAFEDAFDF01F80191918D91892740
:101DC00021E0E539F20719F08823B9F322C0811127
:101DD00020C00E94B1178C0180918A0190918B01E3
:101DE0000817190709F44AC08FEF8BAB8CAB1DAAFB
:101DF0000E94B1178160782F9FAB8EAB4BA95CA975
:101E00006DA98FA90E94ED2C10938B0100938A017C
:101E100035C0B6EEEB2EB1E0FB2ED12CD7019D9054
:101E20007D01F801A080A92409F1C12CBB24B39441
:101E30008A2D8B21A1F0C8AED9AE91E0892D8B21DE
:101E400009F490E09AAF0E94B1178160782F9CAF9F
:101E50008BAF48AD59AD6AAD8CAD0E94ED2CC394EB
:101E6000BB0CF6E0CF12E4CFD8019C92D3940F5F65
:101E70001F4FB8E0DB12D2CF0E94A5178091FC0261
:101E80009091FD02892B89F16091F1027091F2022B
:101E90008091F3029091F4020E947A170091ED0272
:101EA0001091EE022091EF023091F002601771075D
:101EB00082079307D0F08091FC029091FD020E946E
:101EC0008A2F1092FD021092FC021092F1021092E1
:101ED000F2021092F3021092F4021092ED021092AC
:101EE000EE021092EF021092F002809104039091A2
:101EF0000503892B41F180919501909196010E94F3
:101F000096178C01BE01655D7F4F88E0FB01119241
:101F10008A95E9F780910403909105030E94E631C8
:101F20008017910780F480910403FEE08F9FC00129
:101F30001124FC01EC54FC4F208122FD04C081558A
:101F40009C4F0E94601880911101882341F180917B
:101F5000EB029091EC02009711F10E9496172091EC
:101F600045023091460228173907C8F49091E902DA
:101F70008091EA02981759F00E948D1A1092460239
:101F8000109245021092EC021092EB0208C00E94DF
:101F90000C1A1092EC021092EB020E946D1AC09083
:101FA000A301D090A4010D2C000CEE08FF081091A5
:101FB0000D01412F50E0E5EAF1E081E090E04817A3
:101FC000590764F0219131914901330FAA08BB08E8
:101FD000C80CD91CEA1CFB1C0196F1CFF7FE03C00C
:101FE000C12CD12C760160919F017091A00180914C
:101FF000A1019091A2010E947A172B013C01A0E659
:10200000BAEEA70196010E9490344B015C0188EC66
:10201000189F90011124C901330FAA0BBB0B9C011F
:10202000AD01240D351D461D571DA5E0B0E00E94F1
:1020300090349B01AC01C501B4010E9442344901B6
:102040005A0157FD0BC0213F3105410551054CF0A8
:10205000A0EF8A2E912CA12CB12C03C0812C912CA5
:102060005401A9EC4A1651046104710414F18091E1
:102070009E0190E0019669E170E00E942E34809309
:102080009E01880F991FFC01ED55FE4F11821082B1
:10209000183110F41F5F01C018E110930D010E9468
:1020A000A51760939F017093A0018093A101909365
:1020B000A201B2E0CB16D104E104F1041CF4812C9E
:1020C000912C540160919A0170919B0180919C0127
:1020D00090919D010E947A176B017C016536710514
:1020E0008105910584F00E94A51760939A01709371
:1020F0009B0180939C0190939D0180919901809315
:1021000098018092970110919801A0919701B0E0F9
:10211000A11BB109A70196010E949B3424E630E07F
:1021200040E050E00E946434120F109399018091B6
:10213000380280FF1EC08091100182FF1AC00E94E9
:10214000B1172091410230914202AC01421B530B66
:1021500020910E0130910F014217530750F025EDE9
:1021600031E041E0BC0180914302909144020E9421
:10217000651BD12CC12C8091DF01D81608F057C007
:102180000D2D10E0E3B1E295E1701D9B02C092E0DD
:1021900001C090E08E2F892BD801A052BE4FEC9148
:1021A0002E2F237030E0482F082E000C550B2417DB
:1021B0003507D9F1EE0FEE0FE82BEC93EF70F0E05E
:1021C000E75DFE4F980122523E4F79019081D9017F
:1021D0008C91890F8C93843064F0F801E352FE4FA8
:1021E00080818F5F808361E08D2D0E94A42F21E08C
:1021F00001C020E0F70180818D3F5CF4F801E352DB
:10220000FE4F80818150808360E08D2D0E94A42F3D
:1022100021E0D7018C91082E000C990B64E070E04E
:102220000E942E34F7018083C22AD394A4CFC11018
:102230000E94A5170E9439189091E101891721F099
:102240008093E1010E94A51780913C03843009F03E
:1022500063CD83E08093E9008091E80082FF5CCD4C
:102260008091E80085FF22C00E948A2781111CC04E
:1022700000E210E09E012F5F3F4F790108C080917E
:10228000F100D7018D937D010150110969F0809112
:10229000E80085FDF4CF8091E8008B778093E8001B
:1022A0000E948A27882399F391E001C090E08091F1
:1022B000E8008B778093E800992309F42DCD0091F5
:1022C000F8011091F90189810115110561F08E3F26
:1022D00009F0F6C38A81833008F4BAC1855083308F
:1022E00008F0EEC3B5C18B3009F49BC110F5853001
:1022F00009F470C0B0F48230D9F130F4813009F0C3
:10230000DDC31A8289E00DC3833009F456C08430DE
:1023100009F0D4C34C816B818A810E9400319D8376
:10232000F1C3873009F4CAC308F0C8C30E946F30F4
:10233000C7C3803109F4B5C078F48D3009F457C0B3
:1023400008F453C0FE0131966F018E3009F453C07A
:102350008F3009F479C0B2C3823109F4A8C008F4FF
:10236000A3C0833109F4CFC08E3F09F471C1A6C365
:102370008A81823009F4BFC3833051F0813009F083
:102380009DC30E94A5179B838C837D836E8398C316
:102390008091FA049091FB04892B09F491C3FE010A
:1023A0003396CE010B96ADADBEAD2D91BEAFADAFA8
:1023B0002193E817F907B9F783C38A81823009F0BE
:1023C0007DC36B817C818D819E810E9489340E94B6
:1023D0007E3376C32D813E813227232732274C81DD
:1023E0006B818A810E9448306BC380E15EC081E0CE
:1023F0008A8385E396C20A811B8110270127102753
:10240000AC80B12CBDE1AB16B10408F059C37F011B
:10241000C80185539D4F97012C193D092A153B058D
:1024200008F04EC30533E1E01E0730F40E94E433A8
:10243000D70114968C9302C0F70114820F5F1F4FCF
:10244000FFEFEF1AFF0AE4CF8091FA049091FB04AA
:10245000892B09F435C30A811B8110270127102716
:10246000EC80F12C2DE1E216F10408F029C35F01A4
:10247000C80185539D4F95012C193D092E153F0527
:1024800008F01EC3053331E0130728F4D501149674
:102490006C910E94F2330F5F1F4FBFEFAB1ABB0A64
:1024A000E7CF0E94381D0CC384E08A8309C30A81E8
:1024B0001B81102701271027CC80D12CEDE1CE16EF
:1024C000D10408F0FDC29E012F5F3F4F59017901F1
:1024D000C801879697012A193B092C153D0508F07C
:1024E000EFC2003831E0130730F40E94E433D70123
:1024F00014968C9302C0F70114820F5F1F4FFFEFF9
:10250000EF1AFF0AE5CF0A811B8110270127102748
:10251000CC80D12C2DE1C216D10408F0D1C23801F3
:1025200037E2630E711C003881E0180708F0C8C25A
:1025300080E891E0801B910B8C159D0508F4C0C2CA
:102540008091FA049091FB04DE0111965D01892BC4
:1025500011F075015DC000FF0FC0C80186960E9492
:10256000E43390E0982F88272D81822B81159C459C
:1025700031F48FEF8D8303C0E12CF12C03C0EE24E6
:10258000E394F12CC601800F911F460180FF1BC010
:10259000E1E08E1A910855E0452E512C4C0E5D1E3F
:1025A000480C591CC3018C0D9D1D0E94E433D201BF
:1025B0002C9130E0322F2227282B21153C4519F48D
:1025C0008FEFF2018083F501EE0DFF1D2FEFCF019C
:1025D0008A199B098815990508F0BBCF848190E082
:1025E000982F88273581832B81159C4511F42483EE
:1025F00025833296ECCF0038A1E01A0720F4F701CA
:1026000064810E94F2330F5F1F4FFFEFEF1AFF0A42
:10261000C801879697012A193B092C153D0558F3E7
:102620004FC28091FA049091FB04892B09F448C2AF
:10263000CE0101960E94E7272FEF31EE84E0215072
:1026400030408040E1F700C000000E94301738C2DF
:10265000EA818E2F90E08E30910508F031C2FC01A6
:10266000EE59FF4F0C94833488E0E3E1F1E0DE01A2
:10267000919601900D928A95E1F7FE01319680E2E4
:10268000DF011D928A95E9F785E0898388E0B0969D
:10269000DE011596AEC1B0E4B98381E08A831B8266
:1026A0001C820EC28C8190E0982F88272B81820F8C
:1026B000911D092E000CAA0BBB0B35E0880F991F4A
:1026C000AA1FBB1F3A95D1F7AC01BD01405E5F4F19
:1026D0006F4F7F4F481759076A077B0708F4F0C10F
:1026E0008034E1E09E07A105B10508F0E9C141345D
:1026F000F1E05F076105710520F040E451E060E022
:1027000070E0481B590BBC016E5F7E4FCE010196F5
:102710000E94CB33D5C140E250E06FEF70E0CE01B4
:1027200001960E9413358091FA0489830A831B82E3
:102730001C8282E08D8383E0E5C181E090E090938C
:10274000F9018093F80182E390E09093E501809392
:10275000E4010E94B1179093E3018093E201B0C1BC
:10276000012BA9F11091E80113FB882780F9109142
:10277000E60118238091E2019091E3010E949617EF
:1027800085369105F0F01123E1F00E94B117909386
:10279000E3018093E2018091E4019091E5010197CA
:1027A0009093E5018093E401892B89F41092F9015B
:1027B0001092F80181E090E09093FB048093FA047A
:1027C00006C082E390E09093E5018093E40180915C
:1027D000FA0489838091F8018A838091E401A1C081
:1027E0001092FB041092FA046BC10B811C8140E231
:1027F00050E06FEF70E0CE0101960E94133522E4A5
:1028000032E0A2EDB2E080E090E0AC014E5F5F4FBD
:102810004132510508F054C1F901659174910617D0
:10282000170748F4E1E0F0E0EC0FFD1FE80FF91F97
:1028300071836083CA01245F3F4FA217B30729F752
:102840003FC14B815C8122ED32E082E492E0FC01E9
:10285000659174916417750729F00C96281739074C
:10286000B1F72CC1009709F429C1FC0136962591D6
:1028700034912115310509F421C14FE150E0BE0129
:102880006E5F7F4FF90109951AC12B813C8182ED62
:1028900092E002E412E0F8014591549124173507C3
:1028A00031F0045F1F4F80179107A9F707C1011589
:1028B000110509F403C1F8013896259134912115C9
:1028C000310509F4FBC04CE150E0BE016B5F7F4F66
:1028D000C801F9010995009709F0F1C0F8013A968D
:1028E00085919491009711F0FC01099580E0E7C073
:1028F0000E94021DE5C0EB818E2F90E0873091058C
:1029000008F0DEC0FC01E059FF4F0C948334FE0157
:10291000319680E2DF011D928A95E9F788E089838C
:102920008A838B83CDC08C819AE0F92E8E010F5D56
:102930001F4FF8012F2D11922A95E9F7B8010E9437
:1029400033308983F801DE01129601900D92FA94DA
:10295000E1F7B6C01C818AE0FE013596DE01919652
:1029600001900D928A95E1F789A19AA10E946E3398
:102970009AA389A38BA19CA10E946E339CA38BA3D5
:102980008DA19EA10E946E339EA38DA38FA198A5B9
:102990000E946E3398A78FA3183070F43AE0139F0B
:1029A000B001112465527E4F4AE050E0CE0181967D
:1029B0000E94163480E001C08FEF89830E940432A8
:1029C0007FC06C81CE0181962AE0DC011D922A95A0
:1029D000E9F7683038F4BAE06B9FB0011124655D07
:1029E0007D4F41C08FEF89838AE0FE01B196DE0101
:1029F000129601900D928A95E1F762C01C818AE0DF
:102A0000FE013596DE01919601900D928A95E1F7CF
:102A100089A59AA50E946E339AA789A7183070F4E9
:102A2000EAE01E9FB0011124655D7D4F4AE050E051
:102A3000CE0181960E94163480E001C08FEF898319
:102A40000E94A2313DC06C81CE0181962AE0DC015A
:102A50001D922A95E9F7683028F6BAE06B9FB0011D
:102A6000112465587D4F4AE050E00E94D43380E045
:102A7000BACF1C818AE0FE013596DE019196019065
:102A80000D928A95E1F78BA19CA10E946E339CA3C5
:102A90008BA3183070F4EAE01E9FB0011124655832
:102AA0007D4F4AE050E0CE0181960E94163480E0CE
:102AB00001C08FEF89830E942E3102C08FEF89837E
:102AC000CE0101960E94E72727C909BD19BD09B4A7
:102AD00000FEFDCF8091D8008F7D8093D80080913B
:102AE000E00082608093E0008091E00081FDFCCFF7
:102AF0000E94551E18C986E290E00E94E4331B82B2
:102B00001C821D828E83DCCF089580912803089556
:102B1000A0E0B0E0EEE8F5E10C94AB3444305105B0
:102B200008F46CC04091FA0141FBCC24C0F8D12CD0
:102B3000CC0CDD1C42FB882780F9C82FE0E0DE2F9B
:102B4000CC0FDD1FCC0FDD1FCC2ADD2A40FBEE248D
:102B5000E0F8F12CEC28FD2843FBAA27A0F9B0E00F
:102B600023E0AA0FBB1F2A95E1F7EA2AFB2A44FBC0
:102B7000EE27E0F9F0E034E0EE0FFF1F3A95E1F7C1
:102B8000EE29FF2945FB222720F930E055E0220FEE
:102B9000331F5A95E1F72E2B3F2B46FB882780F9F0
:102BA00090E0E6E0880F991FEA95E1F7822B932BDE
:102BB00047FB442740F950E05695542F442757953A
:102BC0004795842B952B2091FB01322F3170132FC9
:102BD00000E0082B192B26952170B22EBB0CA12CDE
:102BE0000A291B29012E000C220B330BFB01008349
:102BF00011832283338380E090E002C08FEF9FEF48
:102C0000CDB7DEB7EAE00C94C73480911D029091F5
:102C10001E0290930F0180930E010895CF93DF93CE
:102C200021E02093E9002FEF3091E800215035FD9D
:102C300006C035ED3A95F1F700002111F5CF20914E
:102C4000E80025FF14C0EC0140E050E068E070E0CF
:102C50000E94BD278091E8008E778093E80088E08D
:102C6000FE01A9E2B3E001900D928A95E1F7DF91B0
:102C7000CF910895CF92DF92EF92FF9244305105A9
:102C800008F46FC0FB01C080D180E280F3800E9415
:102C9000551E8091FA01C0FA80F9B701A601769518
:102CA00067955795479540FB81F9B701A60122E04A
:102CB00076956795579547952A95D1F740FB82F908
:102CC000B701A60133E076956795579547953A95F4
:102CD000D1F740FB83F9B701A601E4E0769567954B
:102CE00057954795EA95D1F740FB84F9B701A601BE
:102CF000F5E07695679557954795FA95D1F740FB9E
:102D000085F9B701A601A6E0769567955795479591
:102D1000AA95D1F740FB86F9B701A601B7E07695F1
:102D2000679557954795BA95D1F740FB87F98093FA
:102D3000FA018091FB01D0FA80F999E0F694E794CA
:102D4000D794C7949A95D1F7C0FA81F98093FB0183
:102D50008091FA019091FB010E94AF2A80E090E0FF
:102D600002C08FEF9FEFFF90EF90DF90CF9008951C
:102D70009C01CA01F9013296459154918417950737
:102D800050F0CB01F9013496659174910E940A3597
:102D900080E090E008958FEF9FEF08950F931F93C9
:102DA000CF93DF930DE112E0C7EBD1E0CE010E949B
:102DB000E433F80161918F01681719F0CE010E9488
:102DC000F2332196CB3DF1E0DF0781F7DF91CF9120
:102DD0001F910F910895DA019C012E5F3F4FF90179
:102DE00045915491F90125913491A217B30758F0F8
:102DF000FC013496859194910E940A350E94CE166A
:102E000080E090E008958FEF9FEF08958093110385
:102E1000709313036093120380913C038430F9F4A0
:102E20008093E9008FEF9091E800815095FD06C0F6
:102E300095ED9A95F1F700008111F5CF8091E800AA
:102E400085FF0DC040E050E063E070E081E193E079
:102E50000E94BD278091E8008E778093E800089556
:102E600081E08093E00080E28093D8001092C90056
:102E70008FE19EE40197F1F700C0000087E090EB3E
:102E8000DC018093FC049093FD04A093FE04B093B6
:102E9000FF049CE088E10FB6F894A8958093600049
:102EA0000FBE90936000FFCF78941F920F920FB6E1
:102EB0000F9211248F939F93AF93BF9380910D0333
:102EC00090910E03A0910F03B09110030196A11DE4
:102ED000B11D80930D0390930E03A0930F03B09345
:102EE0001003BF91AF919F918F910F900FBE0F90E4
:102EF0001F901895CF92DF92EF92FF922FB7F89420
:102F0000C0900D03D0900E03E0900F03F0901003DB
:102F10002FBFA7019601261B370B480B590BCA017F
:102F2000B901FF90EF90DF90CF9008959C014FB7CB
:102F3000F89480910D0390910E03A0910F03B0912E
:102F400010034FBF821B930B08952FB7F894609125
:102F50000D0370910E0380910F03909110032FBF0A
:102F600008952FB7F89480910D0390910E03A091CE
:102F70000F03B09110032FBF08951F920F920FB649
:102F80000F9211248F939F93AF93BF9380910C0363
:102F9000811113C080910D0390910E03A0910F0336
:102FA000B09110034196A11DB11D80930D03909324
:102FB0000E03A0930F03B0931003BF91AF919F91A5
:102FC0008F910F900FBE0F901F9018959C012A5F54
:102FD0003F4FFC014281461301C0128201968217C5
:102FE0009307B9F708959C01FC0132969FEF80E0AA
:102FF0004191461789F09F3F19F4411101C0982F64
:103000008F5F8630A9F79F3F39F0F901E90FF11D75
:1030100097FDFA9562830895089520910A033091EF
:103020000B032817390771F090930B0380930A0361
:10303000E0910803F0910903309721F00084F185B5
:10304000E02D099508952091060330910703281774
:10305000390771F09093070380930603E09108030A
:10306000F0910903309721F00680F781E02D099552
:103070000895E0910803F0910903309729F0019039
:10308000F081E02D0995089580E00895CF93DF93B6
:10309000EC01EA85FB85309719F06C857D850995F3
:1030A0008B810E94582B8C810E945F2B0E94D62B13
:1030B00086E0FE0111928A95E9F7DF91CF9108959C
:1030C000CF93DF93EC018D8181FD15C082608D83EC
:1030D000909103038B81892B809303038C810E9441
:1030E000662B0E94D62BE885F985309721F06C85F8
:1030F0007D85CE01099510920503109204038D8100
:1031000080FD03C0CE010E944618DF91CF91089543
:10311000A0E0B0E0EEE8F8E10C94AB347C015B0198
:10312000C42FD22FFC0182818823B1F04093020387
:103130000E94B117909301038093000380E28C0FEB
:10314000883008F052C0C77081E001C0880FCA956E
:10315000EAF70E94791E49C080910203481335C0E6
:1031600080910003909101030E9496176C01B701B2
:10317000C5010E94E631C816D90638F510E21D0FC8
:10318000CD17B9F080E28C0F883040F4C77081E031
:1031900001C0880FCA95EAF70E94721E183010F518
:1031A00081E09D2F977001C0880F9A95EAF70E94E1
:1031B000791E802F0E94711F1830B8F4D77081E0FB
:1031C00001C0880FDA95EAF70AC080E28C0F8830D8
:1031D00060F4C77081E001C0880FCA95EAF70E94C9
:1031E000721E03C0802F0E94711FCDB7DEB7EAE0C8
:1031F0000C94C734CF92DF92EF92FF92CF93DF937C
:10320000EC01C090F502D090F602E090F702F09049
:10321000F802C701B6010E947A17643F7140810528
:10322000910568F4C092F102D092F202E092F302AA
:10323000F092F40284EF91E0A0E0B0E00EC00E94B2
:10324000A5176093F1027093F2028093F3029093BA
:10325000F40282E390E0A0E0B0E08093ED0290936E
:10326000EE02A093EF02B093F002D093FD02C09360
:10327000FC02DF91CF91FF90EF90DF90CF90089507
:10328000FF920F931F93CF93DF930091FE02109153
:10329000FF020115110509F45CC01092FD021092A5
:1032A000FC021092F9021092FA02D80116966D9162
:1032B0007C9117979B013A9521153F4108F4707E48
:1032C000C62FD1E0611101C0D0E0F82ED8011996C7
:1032D000ED91FC911A97309739F01B966D917C9186
:1032E0001C9780E00995D823DD2379F08CEF8C0FB3
:1032F000813A30F46C2F8EEE91E00E94E61705C003
:103300000E94D62B8C2F0E94801EE091FE02F0912D
:10331000FF0240815181FF2071F0808584FD0BC048
:103320008091FB02882339F091E09A012150310904
:10333000203B3D4508F090E090FF03C0CA010E9489
:10334000FA180E94D62B1092FF021092FE021092E1
:10335000FB02C801CDB7DEB7E5E00C94CC34FC012C
:1033600084818623C1F492819923B9F080856923F1
:1033700083FF04C081E0611111C00DC0892F8F70DF
:1033800092959F70982B862F8F7062956F70682B27
:1033900081E0961719F080E0089581E00895452BAB
:1033A00041F06F3F41F491E08F3F09F090E0892FA9
:1033B00003C081E001C080E081700895BC014091AC
:1033C000E9028091EA02942F981729F1292F30E021
:1033D000F901EE0FFF1FEF51FD4F0190F081E02D3D
:1033E000E617F70799F487E0869FF001879FF00DB5
:1033F0001124E755FD4F81E0848394130CC02F5FA7
:103400003F4F237033272093E90208952F5F3F4FEA
:10341000922F9370D9CF0895A0E0B0E0E2E1FAE1F5
:103420000C94AE3480914802882309F451C0009175
:103430004702F12C8CE0E82E80914802081708F032
:1034400043C0DD24D394D00ED092470210E0E09E1A
:10345000E001E19ED00D1124C75BDD4F4B815C8103
:10346000698188810E94CF1981112CC08E819F8132
:10347000892B21F488859985019651F42881398119
:103480004A815B816C817D818E819F810E94DF21D9
:10349000E09EF001E19EF00D1124E75BFD4F1482E8
:1034A000138210920303F1100DC0CE010E94941FED
:1034B000811108C08FE39CE90197F1F700C000007B
:1034C000FF24F3940D2DB8CF1092480210924702BA
:1034D000CDB7DEB7E7E00C94CA34109246021092E2
:1034E0004502E9EAF2E08581811102C01482168268
:1034F000379682E0E13EF807B1F708951092EC02AA
:103500001092EB02109211018091EA028093E9027D
:103510000E946D1A0E940C1A0895A0E0B0E0E3E941
:10352000FAE10C94A434C091E90297E0892E01E0FD
:1035300010E02CE0322E3EEF932E442443948091F1
:10354000EA02C81709F479C0D0E0FE01EE0FFF1FB0
:10355000EF51FD4F80819181889ED001899EB00DF1
:103560001124A755BD4F14962C911497211162C0B8
:1035700050904802E9E4F2E020E030E0712C5D0177
:10358000251508F055C0E284F384D501CD90DC9078
:103590006FEF7FEF612C462D50E0DA01AA0FBB1FC1
:1035A000AC0DBD1D0D90BC91A02D109731F0EA1609
:1035B000FB0609F4BA016394EECF6F3FBFEF7B07C0
:1035C00099F1D80102C0AA0FBB1F6A95E2F77A2AC7
:1035D000B801062C02C0660F771F0A94E2F7AB0110
:1035E00041505109672D70E046175707D9F4329EB4
:1035F000F001339EF00D1124E75BFD4F889ED00152
:10360000899EB00D1124A755BD4F12962D913C9166
:1036100013973783268390829182918780871596AE
:103620004C9206C0148213822F5F3F4F3C96A8CF66
:103630000E94DE192196C37082CF0E940C1A0E944C
:103640006D1ACDB7DEB7E1E10C94C0348091100162
:10365000877F8093100182E00E94582B8091100197
:1036600084FF06C08F7E8093100182E00E94662B4B
:103670008091100185FF06C08F7D8093100180E24C
:103680000E94662B0E94D62B0895662329F0209174
:1036900003032260209303039C013056211540E26E
:1036A000340720F0305E2115304108F499270E943C
:1036B0008A2F0895009741F0EFE9FFE03197F1F785
:1036C00000C000000197F6CF0895A0E0B0E0EBE65F
:1036D000FBE10C94AB345C017B01C42E8901809129
:1036E000100182FF8DC0C0914302D0914402CA15DF
:1036F000DB0521F0A114B10409F082C08091100112
:103700008B7F8093100181FD11C0809141029091C7
:103710004202A701481B590B81E020910E01309114
:103720000F014217530718F480E001C081E0817057
:10373000D82E80911001D0FA81F980931001FE01FA
:10374000FF2784E0F695E7958A95E1F79E012F70B3
:103750003327EE0FFF1FE350FE4F81E090E002C0E1
:10376000880F991F2A95E2F7DD2029F02081318109
:10377000822B932B06C080959095208131818223E6
:103780009323918380838091FC0181FF08C0809105
:10379000100180618093100182E00E945F2B809174
:1037A000FC0185FF08C080911001806280931001A8
:1037B00080E20E945F2BA8016D2DCE010E94451B67
:1037C000CC2031F08091380285FF02C086FF36C0E0
:1037D00080913B0290913C020E945A1B80914302CF
:1037E000909144029C013056211540E2340720F0AC
:1037F000305E2115304108F499270E94702F18C0BF
:1038000095013327C5019056811540E2940720F0B9
:10381000905E8115904110F4C90101C0C5010E945C
:10382000702F8091430290914402A816B90611F4BA
:103830000E94261BF0924202E0924102CDB7DEB711
:10384000EAE00C94C734A0E0B0E0E9E2FCE10C94BB
:10385000AA34EC01A62E8AE0982E2881222309F4AE
:10386000A5C0213009F041C08981813039F48E0131
:103870000E5F1F4F8A810E94711F08C0823041F481
:103880008E010E5F1F4F8A810E94D91EE80181C000
:10389000833039F48E010E5F1F4F8A810E94801E93
:1038A000F5CF843011F0219674C02A81229680E0F1
:1038B00090E030E0205331092A30310558F4989EC9
:1038C000A001999E500D1124C901840F951F2196C6
:1038D0002881EFCF009709F45CC0EFE9FFE0319752
:1038E000F1F700C000000197F5CFE22FF0E0EE5FA6
:1038F000FC4FB490822F86958695869590E0FC01CA
:10390000EE50FD4FE4902770F12C022E02C0F5948A
:10391000E7940A94E2F7F1E0EF22FF24FC01EE5174
:10392000FD4FC490D12C022E02C0D594C7940A94A6
:10393000E2F731E0C322DD24FC01EE52FD4F049199
:1039400010E002C0159507952A95E2F7017011273E
:10395000E114F10419F081EE0E94D91EC114D104C2
:1039600019F086EE0E94D91E8B2D0E94711FC11482
:10397000D10419F086EE0E94801EE114F10419F0C2
:1039800081EE0E94801E0115110519F08CE20E9443
:10399000711F21968A2D882309F45FCFEFE9FFE09C
:1039A0003197F1F700C000008150F5CFCDB7DEB7F9
:1039B000EBE00C94C6340F931F93CF93DF930DE18C
:1039C00012E0C7EBD1E0CE010E94E433F80181930D
:1039D0008F012196CB3DF1E0DF07A9F7C0E0D0E0F1
:1039E000FE01E45BFD4F85919491009711F0FC017D
:1039F00009952C96C039D10599F7DF91CF911F9188
:103A00000F910895EDE1F2E0128E138E8FEA90E0AF
:103A10009183808385E0848F28E833E13383228398
:103A200022E330E0378B268B28EC30E0318F208F7B
:103A3000158E2AE030E0378F268F20E530E031A365
:103A400020A382A30E94CE160E94551E1092FB0155
:103A50001092FA01EBEFF1E0808184608083809125
:103A6000FA019091FB010E94AF2A0E94DB1C08958D
:103A7000CF93DF93CBECD2E060E0CE010E94F23333
:103A80002196C11584E0D807B9F7DF91CF91089549
:103A90002091F8013091F901232BA1F4703F39F402
:103AA000603F81F48091F6019091F7010895843090
:103AB00048F4783038F4663028F4462F672F0E9497
:103AC0000031089580E090E0089580E090E00E9449
:103AD000231880E090E00E940D18109203030E94CA
:103AE000D62B0895CF92DF92FF920F931F93CF931F
:103AF000DF936C0100913D0380919603082BC7E092
:103B0000D0E010E0C8010C2E02C0959587950A946C
:103B1000E2F780FD04C02197A8F7F12C09C0FC2E24
:103B2000B6018C2F0E94481D0E942829019799F305
:103B30008F2DDF91CF911F910F91FF90DF90CF904C
:103B40000895CF93DF93EC010E94721DBE010E9485
:103B5000481D0E942829DF91CF910895292F983080
:103B600078F5863068F590E036E0239F800D911D52
:103B70001124682F677023E0969587952A95E1F7C1
:103B8000FC01EE0FFF1FE80FF91FEC5EFC4F40E059
:103B900050E080E0219130E0062E02C03695279556
:103BA0000A94E2F721703327042E01C0220F0A94F1
:103BB000EAF7822B4F5F5F4F4330510559F7089565
:103BC00080E00895292F983088F5863078F590E0C8
:103BD00036E0239F800D911D1124282F277051E07E
:103BE00001C0550F2A95EAF723E0969587952A9507
:103BF000E1F7FC01EE0FFF1FE80FF91FEC5EFC4F31
:103C000020E030E070E04081CB01022E02C09695AA
:103C100087950A94E2F7817081958427852384270C
:103C200081932F5F3F4F2330310569F708958093CB
:103C30003D030E94651D089521E030E001C0220F80
:103C40008A95EAF7209580913D0382230E94171EF2
:103C5000089521E030E001C0220F8A95EAF78091B3
:103C60003D03822B0E94171E0895809396030E94A5
:103C7000651D089592959F70963079F010F49250DA
:103C800001C09A50923068F4803F69F018F4883E81
:103C900040F409C0843F29F406C0883E20F0813FEB
:103CA00011F080E0089581E008951092FC0186E013
:103CB000E0EFF1E0DF011D928A95E9F70E94651DB2
:103CC0000895882321F00E94582B0E94D62B089536
:103CD000882339F090910303892B809303030E947A
:103CE000D62B0895882321F00E945F2B0E94D62BAB
:103CF0000895882321F00E94662B0E94D62B0895F8
:103D0000882309F455C0682F823869F40E94391855
:103D100081FF4EC069E38EEE91E00E94F3170E948E
:103D2000D62B69E30EC0833899F40E94391880FFBE
:103D30003FC063E58EEE91E00E94F3170E94D62B00
:103D400063E58EEE91E00E94E6170E94D62B08955F
:103D5000843869F40E94391882FF2AC067E48EEE25
:103D600091E00E94F3170E94D62B67E4EACF8CEF14
:103D7000860F813A30F380E2860F883048F467700E
:103D800081E001C0880F6A95EAF70E945F2BDDCFC2
:103D90008BE5860F833028F480E090E00E942318A2
:103DA0000895685A673120F480E090E00E940D1871
:103DB0000895CF93882309F492C0C82F8238B1F4B4
:103DC0000E94391881FD8BC069E38EEE91E00E945C
:103DD000F3170E94D62B2FEF87EE93E021508040FF
:103DE0009040E1F700C0000069E317C08338E1F4B8
:103DF0000E94391880FD73C063E58EEE91E00E9449
:103E0000F3170E94D62B2FEF81EE94E021508040D3
:103E10009040E1F700C0000063E58EEE91E00E9463
:103E2000E6170E94D62B5BC08438B1F40E94391883
:103E300082FD55C067E48EEE91E00E94F3170E9468
:103E4000D62B2FEF81EE94E0215080409040E1F797
:103E500000C0000067E4E1CF8CEF8C0F813A80F462
:103E6000E0EFF1E086EF91E02191C21781F18E172A
:103E70009F07D1F76C2F8EEE91E00E94F317D1CF00
:103E800080E28C0F883048F4C77081E001C0880F51
:103E9000CA95EAF70E94662BC4CFEBE5EC0FE3303E
:103EA00040F4F0E0E85BFE4F808190E00E94231830
:103EB00016C0C85AC73198F4EC2FF0E0EE0FFF1F80
:103EC000E55BFE4F808191810E940D1808C06C2F28
:103ED0008EEE91E00E94E6170E94D62BCBCFCF91B9
:103EE00008951F93CF93DF93182F893329F4C0913E
:103EF0003D02D0913E0204C0C0913B02D0913C02F1
:103F0000812F0E94D91E209741F08FE99FE00197F1
:103F1000F1F700C000002197F6CF812F0E94801E8C
:103F2000DF91CF911F910895CF93DF93EC014B81E7
:103F30005C81698188810E94CF1981110EC08E81B8
:103F40009F81009719F00E94282904C088819981D7
:103F50000E94A11D0E943A1E01C080E0DF91CF9116
:103F60000895A5E1B0E0E7EBFFE10C94A5348C01E6
:103F700085E0F801DE01519601900D928A95E1F7F6
:103F8000D8015C9011966C9011971296EC90129754
:103F90001396CD90DC90149760E08EE393E00E943E
:103FA000DF2C8EE3A82E83E0B82E80904103909002
:103FB0004203A40160913F0380913E030E94CF1908
:103FC000F82E8111DBC140904003F601E819F90990
:103FD0004F0160E0442009F45FC1C5010E94DF2C5D
:103FE000B5010E94E631709043038816990608F0E7
:103FF0000BC14091410350914203B0903E03A09009
:104000003F03872D807F6A2D09F08EC08B2D0E9483
:10401000CF19811124C0D80111968C9111978A1162
:104020001EC08C918B111BC020914403309145031D
:1040300016968D919C9117972817390781F4E110F6
:104040000EC0872D8F708061809343038EE393E0D1
:104050000E945E0380914303F8018583ABC1A601F2
:10406000662D852D0E94CF19D82E811103C081E0C5
:104070008E2502C080E090E080FF17C04E2D662D97
:10408000852D0E942C2C882381F080913A0280FF9C
:104090000CC08EE393E00E945E03EEE3F3E088E061
:1040A000DF011D928A95E9F785C1D11003C081E037
:1040B0008E2502C080E090E0B82FB170CB2E80FF3B
:1040C0002AC04E2D662D852D0E942C2CD82E8111B4
:1040D00022C0598A6A8A89899A890E94A11D292F3A
:1040E00022952F70223018F0243078F405C09F708C
:1040F00049F0811107C00DC09F7021F0F801958132
:10410000907F39F0805E883020F0C8010E945E0305
:10411000DC2CFD2C4FC1EE2009F44BC180914303F0
:1041200081608093430346C18B2D0E94CF1981117A
:1041300024C0D80111968C9111978A111EC08C91C0
:104140008B111BC0209144033091450316968D912D
:104150009C9117972817390781F4E1100EC0159626
:104160007C92C8010E945E0388E0F801AEE3B3E0F0
:1041700001900D928A95E1F76FC0C8010E94941FCB
:104180008823E1F1EE20D1F120914303822F829523
:104190008F7090E00297A4F080913E0390913F03CE
:1041A0009A8789871B86DD86CC862E87809144037B
:1041B00090914503988B8F87CE0109960E945E03EC
:1041C00088E0F801AEE3B3E001900D928A95E1F743
:1041D0000E94562C16C0F0903E0390903F034091F1
:1041E000410350914203692D8F2D0E94CF198823DE
:1041F00099F0C8010E94941F811130C0C8010E942B
:104200005E03FF24F394D6C0872D807F21F78EE3D1
:1042100093E00E945E03ACC0D80111968C91119777
:104220008911E7CF8C918F11E4CF20914403309115
:10423000450316968D919C91179728173907C9F653
:10424000E110D7CF15967C92C8010E945E0388E0EA
:10425000F50111928A95E9F7F42CACC0EE2071F2C9
:1042600020914303822F82958F7090E002970CF487
:10427000A7CF80913E0390913F039A8389831B824D
:10428000DD82CC822E8380914403909145039887F0
:104290008F83CE01019692CF8EE393E00E94DF2CB4
:1042A0006EE373E00E94E6318816990608F060C05C
:1042B000FE2CEE2009F4A2CFE0903E03D0903F0305
:1042C00040914103509142036D2D8E2D0E94CF19D4
:1042D000811140C0D80111968C9111978D113AC06F
:1042E0008C918E1137C0209144033091450316966E
:1042F0008D919C9117972817390761F580913A02A3
:1043000082FD1FC08091430380FD1BC082958F708A
:10431000482F50E041155105A1F020914303159617
:104320002C9315974F30510549F08F5F982F929538
:10433000907F822F8F70892B15968C93C8010E94D5
:104340005E0388E0F801AEE3B3E001900D928A9538
:10435000E1F730C0C8010E94941F811131CF8091D4
:104360004303816080934303C8010E945E0322C01F
:1043700088E0F50111928A95E9F71CC0EE2009F456
:104380003DCFC8010E94941FF82E882309F436CF30
:1043900088E0F801AEE3B3E001900D928A95E1F771
:1043A00080913E0390913F030E94A11D0E94562CD4
:1043B00001C0F12C8F2D6596E0E10C94C134A0E191
:1043C000B0E0E5EEF1E20C94AF3429873A874B87F1
:1043D0005C876D877E878F87988BCE0109960E94B8
:1043E000B11F81114AC088E0FE013996DE011196A5
:1043F00001900D928A95E1F7E984FA840C851D8578
:10440000A8016F2D8E2D0E94CF19811136C0A09169
:104410004603B0E0CD01019687709927209187036C
:1044200030E08217930781F1E982FA821D830C83C1
:1044300093E0AA0FBB1F9A95E1F7A95BBC4F98E0E8
:10444000FE01319601900D929A95E1F78093460313
:104450000E944C2C12C028E0829FC0011124895B6D
:104460009C4F0E94B11F8823E1F08091870390E068
:104470000196877099278093870380918703909195
:1044800046038913E8CF0DC00E94551E10924603C3
:1044900010928703EEE3F3E088E0DF011D928A9536
:1044A000E9F76096E6E00C94CB348091340387FF03
:1044B00011C08091E80082FD05C080913C0381110C
:1044C000F8CF11C08091E8008B770BC080913C033E
:1044D000882349F08091E80080FFF8CF8091E800C0
:1044E0008E778093E8000895982F973068F5909321
:1044F000E900981739F07091EC002091ED0050918F
:10450000F00003C0242F762F50E021FD02C09F5FF2
:10451000ECCF3091EB003E7F3093EB003091ED001B
:104520003D7F3093ED003091EB0031603093EB0034
:104530007093EC002093ED005093F0002091EE007A
:1045400027FDE5CF80E008958F708093E90081E03A
:10455000089520913A0330913B032617370748F01E
:104560006115710539F42091E8002E772093E80059
:1045700001C0B901FC0120E06115710579F180915C
:104580003C038823F1F18530F1F18091E80083FD4F
:104590003CC08091E80082FD2EC08091E80080FF41
:1045A000EBCF2091F3008091F20090E0922B611507
:1045B000710551F08830910538F421912093F10074
:1045C000615071090196F3CF21E0089709F020E0CE
:1045D0008091E8008E778093E800CECF2111CFCF75
:1045E0000AC080913C03882361F0853061F080919E
:1045F000E80083FD0AC08091E80082FFF2CF80E0EE
:10460000089582E0089583E0089581E00895089573
:10461000BC0184E00E9406170895BC0183E00E945B
:104620000617089580913D03982F9670963011F4E7
:10463000886001C0877F0E94171E0895AAE2B0E03B
:10464000E4E2F3E20C94B234E4E3F3E08CE393E0CD
:104650002091F10021938E179F07D1F780913503A8
:10466000833009F463C030F4813071F0823009F492
:104670009DC0B4C08A3009F489C08B3009F46EC083
:10468000893009F0ABC020C080913403813A09F031
:10469000A5C08091E800877F8093E800809138036F
:1046A00090913903892B21F468E089E293E003C0FB
:1046B00060E080E090E070E00E94A9228091E80034
:1046C0008B778093E8008AC080913403813209F0AF
:1046D00085C08091380390913903009719F00297B3
:1046E00009F07CC08091E800877F8093E80080918A
:1046F000E80082FD05C080913C038111F8CF6EC0B7
:104700002091F3008091F20090E0922B029731F417
:104710008091F100813011F0863021F48091F10018
:10472000809328038091E8008B7754C080913403F4
:10473000813A09F053C08091380390913903892B55
:1047400009F04CC08091E800877F8093E800809159
:10475000E80080FFFCCF8091120137C080913403C4
:104760008132E1F58091380390913903892BB1F5BD
:104770008091E800877F8093E8000E945522809115
:104780003603809312010E94551E28C08091340385
:10479000813221F58091E800877F8093E8000E94B4
:1047A0005522809137038093270318C080913403EA
:1047B000813AA1F48091E800877F8093E80080919E
:1047C000E80080FFFCCF809127038093F100809167
:1047D000E8008E778093E8000E9455228091E800DF
:1047E00083FFEBC18091340390913503492F50E052
:1047F0004A30510508F0E1C1FA01E958FF4F0C9425
:104800008334803821F0823809F0D7C108C0809104
:10481000310390913203992389F082600FC0809117
:1048200038038F70873008F0C8C18093E900809109
:10483000EB0085FB882780F91092E9009091E80051
:10484000977F9093E8008093F1001092F1007CC173
:10485000282F2D7F09F0B1C1882319F0823061F033
:10486000ACC180913603813009F0A7C1933009F0C3
:1048700080E0809332032EC08091360381112AC0DC
:10488000809138038F702FEF280F263008F095C1E4
:104890008093E9002091EB0020FF1CC0933021F4AD
:1048A0008091EB00806214C09091EB009061909336
:1048B000EB0021E030E0A90102C0440F551F8A95AA
:1048C000E2F74093EA001092EA008091EB008860E2
:1048D0008093EB001092E9008091E800877F80933D
:1048E000E8000E94552269C1811167C11091360309
:1048F0001F778091E3008078812B8093E300809183
:10490000E800877F8093E8000E9455228091E800AC
:1049100080FFFCCF8091E30080688093E300111159
:1049200002C082E001C083E080933C0346C180580E
:10493000823008F042C120913603309137032C3D7C
:1049400053E0350779F583E08A838AE289834FB79C
:10495000F894DE01139620E03EE051E2E32FF0E010
:1049600050935700E49120FF03C0E295EF703F5F42
:10497000EF708E2F90E0EA3010F0C79601C0C0961D
:104980008D939D932F5F243149F74FBF8091E800AD
:10499000877F8093E8006AE270E0CE0101960E9472
:1049A000A922C0C08091380390913903432F552725
:1049B00043305105B1F068F44130510509F40CC1A0
:1049C0004230510509F0F9C08BE590E0E6E1F4E0F2
:1049D00057C04132510589F14232510509F43CC0BA
:1049E000ECC0C901992781309105B9F070F082308F
:1049F0009105D9F0039709F0E0C0E3E8F4E0E49111
:104A00008E2F90E0E3E8F4E038C0E3ECF4E0E491CA
:104A10008E2F90E0E3ECF4E030C0EFEAF4E0E491B4
:104A20008E2F90E0EFEAF4E028C0E1EAF4E0E491B0
:104A30008E2F90E0E1EAF4E020C08330910508F089
:104A4000BCC0880F991FFC01EE5BFE4F0190F08106
:104A5000E02D89E090E014C08330910508F0ADC0EE
:104A6000FC01EE0FFF1FE45CFE4F0190F081E02D92
:104A7000DC01A75CBE4F8C9190E0009709F49DC0CB
:104A80002091E800277F2093E80020913A0330919D
:104A90003B032817390708F4C90140E0009789F162
:104AA00020913C03222309F43DC02530D9F1209107
:104AB000E80023FD37C02091E80022FD2FC020919F
:104AC000E80020FFEBCF4091F3002091F20030E0AE
:104AD000342B009759F02830310540F4449140932D
:104AE000F100319601972F5F3F4FF3CF41E028301F
:104AF000310509F040E02091E8002E772093E8008E
:104B0000CDCF4111CDCF0AC080913C03882351F015
:104B1000853041F08091E80083FD04C08091E80079
:104B200082FFF2CF8091E8008B778093E80045C048
:104B3000803809F042C08091E800877F8093E800C8
:104B4000809133038093F1008091E8008E77C7CE87
:104B5000811133C0809136039091370399270297D2
:104B600064F58091E800877F8093E8001091360318
:104B7000109333030E945522111106C08091E30067
:104B800087FD02C081E001C084E080933C0342E0E5
:104B900061EC81E00E94742242E261EC84E00E94B8
:104BA000742242E261EC82E00E94742242E260ECF4
:104BB00083E00E94742280913C038091E80083FF8F
:104BC00010C08091E800877F8093E8008091EB001F
:104BD00080628093EB0005C082E190E0E1E7F4E0C1
:104BE0004FCFAA96E3E00C94CE341F920F920FB6EB
:104BF0000F9211242F933F934F935F936F937F9363
:104C00008F939F93AF93BF93CF93DF93EF93FF93D4
:104C1000C091E900CF708091EC00D82FD17080FD59
:104C2000D0E81092E9008091F000877F8093F00037
:104C300078940E941E231092E9008091F000886011
:104C40008093F000CD2BCF70C093E900FF91EF91DE
:104C5000DF91CF91BF91AF919F918F917F916F9194
:104C60005F914F913F912F910F900FBE0F901F902A
:104C70001895E8EDF0E080818E7F80831092E2004D
:104C80001092DA001092E100A0EEB0E08C91816009
:104C90008C9380818F77808319BCA7EDB0E08C91D5
:104CA0008E7F8C9380818F7E80831092260308955F
:104CB000A0E0B0E0EEE5F6E20C94AD34C8EDD0E053
:104CC00088818F7E8883E7EDF0E08081816080833A
:104CD00084E082BF81E08093260388818E7F888371
:104CE00002EE10E0F80110821092DA0081EEC82E78
:104CF000D12CF601108288818F7788838881806823
:104D0000888388818F7D888319BC10923C03109220
:104D10003303109232031092310390EEE92EF12CFE
:104D2000F70180818B7F808388818160888342E066
:104D300060E080E00E947422F60180818E7F808393
:104D4000F801808181608083808188608083F701A1
:104D500080818E7F8083888180618883CDB7DEB734
:104D6000E8E00C94C9341F920F920FB60F921124F1
:104D70002F933F934F935F936F937F938F939F9363
:104D8000AF93BF93EF93FF938091E10082FF09C03F
:104D90008091E20082FF05C08091E1008B7F8093CB
:104DA000E1008091DA0080FF2AC08091D80080FF66
:104DB00026C08091DA008E7F8093DA008091D9003E
:104DC00080FF18C080E189BD82E189BD09B400FE81
:104DD000FDCF81E080933C038091260381110FC0B9
:104DE0000E9439260E9458268091E20084608093B8
:104DF000E20005C019BC10923C031092260380917A
:104E0000E10080FF17C08091E20080FF13C0809115
:104E1000E2008E7F8093E2008091E20080618093C7
:104E2000E2008091D80080628093D80019BC85E0B0
:104E300080933C038091E10084FF30C08091E200C8
:104E400084FF2CC080E189BD82E189BD09B400FEE8
:104E5000FDCF8091D8008F7D8093D8008091E100B4
:104E60008F7E8093E1008091E2008F7E8093E2004C
:104E70008091E20081608093E20080913303882377
:104E800011F084E007C08091E30087FD02C081E05B
:104E900001C083E080933C0380913C038091E1005A
:104EA00083FF27C08091E20083FF23C08091E1004F
:104EB000877F8093E10082E080933C03109233036C
:104EC0008091E1008E7F8093E1008091E2008E7FEF
:104ED0008093E2008091E20080618093E20042E0F2
:104EE00060E080E00E9474228091F00088608093EE
:104EF000F000FF91EF91BF91AF919F918F917F91C2
:104F00006F915F914F913F912F910F900FBE0F9036
:104F10001F9018952091E4003091E50095E64091AE
:104F2000EC00842F817040FF23C08091E80080FD59
:104F30001DC080913C03882399F0853099F08091C1
:104F4000EB0085FD11C04091E4005091E50024176D
:104F5000350729F3915011F09A01E1CF84E00895CB
:104F600082E0089583E0089581E0089580E0089547
:104F70004091E80042FFDDCF0895EF92FF920F933A
:104F80001F93CF93DF937C018B010E948A278111AD
:104F900019C0E70101151105A1F08091E80085FD18
:104FA0000AC08091E8008E778093E8000E948A27EB
:104FB000882381F307C089918093F1000150110982
:104FC000E9CF80E0CDB7DEB7E6E00C94CB34CF93E9
:104FD00020913C032430F9F4C091E900CF70309166
:104FE000EC00232F217030FD20E8C22B22E020931B
:104FF000E9002091E80020FF0BC040E050E060E2B3
:1050000070E00E94BD278091E8008E778093E800D1
:10501000CF70C093E900CF91089580E008959091FA
:10502000FA0192FF0DC0282F2871283019F4877FCC
:10503000846006C0282F2471243011F48B7F88608F
:1050400093FF0DC0282F2871283119F4877E8461C1
:1050500006C0282F2471243111F48B7E88612091A1
:10506000FB0120FF0DC0382F3871383019F4877FCD
:10507000816006C0382F3171313011F48E7F886025
:1050800021FF0DC0282F2871283119F4877E8161F6
:1050900006C0282F2171213111F48E7E886194FD84
:1050A000877E0895F894E82FE295EF70F0E031A143
:1050B000282F2F7081E090E001C0880F2A95EAF731
:1050C000982F9095932391A392A1892B82A37894F2
:1050D0000895A8E0B0E0EFE6F8E20C94A834AE0141
:1050E0004F5F5F4F7A0188E0FA0111928A95E9F7E4
:1050F0000BE111E06A0183E2A82E81E0B82E88243A
:105100008394912CF80180818F3F09F441C0F89479
:10511000E82FE295EF70F0E021A18F70A40102C0AA
:10512000440F551F8A95E2F7CA01922F982B91A33D
:1051300092A18095892382A3789400C0E3E2F1E0F4
:10514000712C31E021912F3F89F0A22FA295AF70F1
:10515000B0E090968C9190E02F7002C09595879565
:105160002A95E2F780FD02C0832F01C080E0782AF3
:10517000330F51E0E932F50729F7F80180818F3FBD
:1051800011F00E945228F0EAFA95F1F7F6017082C8
:105190000F5F1F4FFFEFCF1ADF0AA016B10609F00D
:1051A000B1CF48E050E0B70182E891E00E94FD34C1
:1051B000892B89F088E0F701A2E8B1E001900D9217
:1051C0008A95E1F781E0809399030E94B11790934B
:1051D00098038093970380919903811102C010E096
:1051E00020C080919703909198030E94961705978D
:1051F000B0F348E050E062E871E086EE91E00E9492
:10520000FD34892B59F088E0E2E8F1E0A6EEB1E048
:1052100001900D928A95E1F711E001C010E0109223
:10522000990380919C03882371F080919A03909157
:105230009B030E949617833E944028F082EE0E94C2
:10524000801E10929C03812F2896EDE00C94C434AC
:10525000CF93DF938238910569F1B0F481339105E2
:1052600009F477C048F48932910509F469C08A329B
:10527000910509F473C092C08533910509F45BC0B0
:1052800089339105B9F08AC0833E910591F138F4D4
:10529000803E9105D1F0823E910531F17FC0863E7E
:1052A0009105D9F1873E9105E9F1843E910509F018
:1052B00075C028C02091FA0120FD5BC021FD59C0B6
:1052C0002091FB0123FD61C069C08091FA0180FD3E
:1052D0004AC08091FB0180FF4CC08091FA0184FD9F
:1052E00039C183EE90E038C18091FA0182FF3EC05F
:1052F000F4CF8091FA0182FD39C08091FB0180FDDD
:1053000038C0EBCF8091FB0181FF39C08091FA0159
:1053100084FD20C187EE90E01FC18091FA0183FFD8
:105320002BC0F4CF8091FA0183FD26C08091FB0150
:1053300081FD25C0EBCF8091FA0185FD26C022C0FA
:105340008091FA0185FD1EC08091FB0183FF1DC085
:105350000AC08091FA0186FD1BC01DC08091FA0130
:1053600086FD19C015C089E390E0F6C082EE90E09A
:10537000F3C080EE90E0F0C086EE90E0EDC084EEE9
:1053800090E0EAC085E390E0E7C089E290E0E4C005
:105390008AE290E0E1C081E390E0DEC0811572E531
:1053A000970708F061C0811521E5920728F0982F32
:1053B0008827816F906AD0C0883E910568F5803E4D
:1053C000910508F0C9C0883A9105B8F4853A91056D
:1053D00048F0855AE82FF0E0E85BFE4F808190E0CE
:1053E0009064BAC08130910509F4B1C008F4B2C02C
:1053F0008430910508F4AEC0AFC08F3B910508F032
:10540000A9C0885AE82FF0E0EE0FFF1FE55BFE4FC2
:10541000808191819464A0C0811530E59307B0F03C
:10542000482F4F704695469520E2429FA0011124D7
:10543000837021E030E0B90102C0660F771F8A95C2
:10544000E2F7CB019D68842B952B86C0811540E443
:10545000940718F09F70906A7FC09C013A952115BF
:105460003F4108F479C076C0EC01811576E59707D5
:10547000E8F5C11585E5D80748F08C2F0E940F2864
:105480008F7190E0982F8827906266C0C11524E53F
:10549000D20728F09C2F8827846F906A5DC0AE01E8
:1054A000437055272C2F26952695C115D34578F4A2
:1054B00081E090E002C0880F991F4A95E2F770E200
:1054C000279F90011124822B932B9C6845C081E07B
:1054D00090E002C0880F991F4A95E2F740E2249FAE
:1054E00090011124822B932B9A6836C081154AE5CE
:1054F0009407F0F4811569E5960790F08C2F8F7072
:105500000E940F2894E0D695C7959A95E1F7CF7041
:10551000D0E0DC2FCC27D069BE01682BCB011CC0AA
:1055200081159845B8F09C2F8827806F906A14C029
:1055300090568115904270F48D2F8F710E940F2824
:10554000282F2F71CE0199279062922B05C081E000
:1055500090E002C080E090E0DF91CF910895CF937A
:10556000C92F682F84E090E00E94F2336C2F82E212
:1055700090E00E94F233CF910895CF9384E090E0C1
:105580000E94E433C82F82E290E00E94E4332C2F83
:1055900030E0A901582BCA01CF91089568EE7EEF43
:1055A00080E090E00E94103460E082E090E00E9491
:1055B000F23360E083E090E00E94F23310929603B1
:1055C00060E084E090E00E94F23364E082E290E0E8
:1055D0000E94F23360E085E090E00E94F23360E0E8
:1055E00086E090E00E94F2336FEF87E090E00E9447
:1055F000F23340E050E0BA0188E090E00E940434C9
:1056000060E08DE090E00E94F23340E050E0BA01AB
:1056100088E190E00E94043460E087E190E00E941D
:10562000F23340E050E0BA018CE190E00E94043493
:1056300060E070E080E290E00E94103440E050E0D2
:10564000BA0188E190E00E94043480E00E94833334
:105650000E94A23340E050E0BA018FE090E00E9447
:10566000043440E050E0BA0183E190E00E94043449
:10567000089580919503882331F01092950310923C
:105680009403109293030895CF939091FB0192FF9E
:105690000DC090919503981749F0C82F0E94B1173B
:1056A0009093940380939303C0939503CF910895AF
:1056B0008095909103038923809303030895809537
:1056C0009091FC0189238093FC0108959091FC0145
:1056D000892B8093FC01089510928A03109289030C
:1056E00010928803089520918A03809582238093E5
:1056F0008A03982F977099F430E0482F082E000CF9
:10570000550B2417350759F09091FB0192FF07C004
:105710008595859585950E941C1E0E946C2B089589
:105720009091FB0192FB222720F9281769F080FB5A
:1057300092F99093FB018091FA019091FB010E94F4
:10574000AF2A82E00E94732B08959091FB0192FF93
:1057500010C098E0899F90011124262B20938A0382
:105760000E94291E0E94B117909389038093880399
:1057700008950E94291E089580911F029091200291
:10578000892B89F00E94B1172091930330919403E3
:10579000AC01421B530B81E020911F02309120028B
:1057A0004217530708F480E0817008959091FC013E
:1057B00080910303892B8093EE01809195038823C8
:1057C00001F180911F0290912002892B29F00E9403
:1057D000BC2B81110E94392B9091EE018091950391
:1057E000892B8093EE01E0EFF1E097E080E09150AB
:1057F00029F021912223D9F38F5FF9CF81110E94E3
:10580000392B8091F90280959091EE018923909136
:10581000FA02892B8093EE0148E050E06BE873E0D8
:105820008EEE91E00E94FD34892BA9F088E0EEEE27
:10583000F1E0ABE8B3E001900D928A95E1F7E091D9
:105840000803F0910903309731F00280F381E02DD5
:105850008EEE91E00995089520918703909146037B
:105860002917B1F030E0F90153E0EE0FFF1F5A9510
:10587000E1F7E95BFC4F5181561306C05081581384
:1058800003C05281541306C02F5F3F4F2770E8CFEB
:1058900080E0089581E00895809187039091460308
:1058A000891719F08F5F8770FBCF0895A0E0B0E0F3
:1058B000ECE5FCE20C94AD348091430382958F704B
:1058C00009F055C080914003882309F450C0C0916D
:1058D000870380914603C81709F449C0F0903E033E
:1058E000E0903F03C0904103D0904203A6016E2D8B
:1058F0008F2D0E94CF19D0E0811136C08E0183E038
:10590000000F111F8A95E1F7F801E95BFC4F8181D7
:105910008E112AC080818F1127C08281811124C0FD
:10592000E380F480EC18FD0860E08EE393E00E94D1
:10593000DF2C6EE373E00E94E631E816F906A0F46E
:10594000809143038F70806180934303F801E45B8F
:10595000FC4F80818F70806180838EE393E00E9492
:105960005E030E944C2C03C02196C770B2CFCDB706
:10597000DEB7E8E00C94C934A5E0B0E0E2ECFCE26C
:105980000C94B23449835A8389819A81662359F0F1
:10599000222349F00E94721D182F682F89819A8155
:1059A0000E94E21D03C00E94AE1D182F69817A81FA
:1059B000812F0E94481D2596E3E00C94CE34FC0113
:1059C00086819781009741F4262F40815181628121
:1059D000738184810E94BC2C0895AAE1B0E0E3EFBA
:1059E000FCE20C94A334942F498B252F5A8B6B8B9C
:1059F0007C8B8D8B4C895D89622F892F0E94CF19FA
:105A0000811109C08091800190918101019690934C
:105A10008101809380018B898111109203038E0193
:105A2000075F1F4F88E0F80111928A95E9F785E03A
:105A3000FE017196D80101900D928A95E1F780914F
:105A4000FB0182FF28C080911F0290912002892BC8
:105A500011F10E94B1172091880330918903821BB4
:105A6000930B20911F02309120028217930740F080
:105A700080918A0382FB992790F981E0892701C0F0
:105A800080E080FF03C082E00E94732B0E94BC2B49
:105A900081110E94392B4C855D856A8589850E941C
:105AA000CF198111CCC161E0C8010E94DF2C6C01CB
:105AB000873FFCE59F0739F48B858823A9F081E0B7
:105AC00080931101BCC1883F9C4531F48B858823AC
:105AD00059F00E947E1AB3C189EFC8168CE5D8062A
